:020000040800F2
:1000000008570020390200089F320008E901000863
:100010008D32000837170008E96900080000000069
:100020000000000000000000000000004D3E00083D
:10003000B1170008000000007301000875530008A4
:10004000530200085302000853020008530200083C
:10005000530200085302000853020008530200082C
:10006000530200085302000853020008530200081C
:10007000530200085302000853020008530200080C
:1000800053020008530200085302000853020008FC
:10009000530200085302000853020008A51C000880
:1000A00053020008530200085302000853020008DC
:1000B0002B5400082D5400082F5400085302000848
:1000C00053020008530200085302000853020008BC
:1000D000530200087D690008A1690008C56900088D
:1000E000A31C000853020008530200085302000832
:1000F000530200085302000853020008530200088C
:10010000530200085302000831540008530200084B
:10011000396700083B67000833540008355400086D
:10012000530200085302000853020008530200085B
:10013000DFF80CD000F010FE0048004779150008E9
:1001400008570020EFF3108072B6704780F31088D4
:100150007047324A1368012B04D04FF0010313603B
:100160002F4A10602F4A11602F484FF080510160D4
:100170007047EFF3108272B62848016891B14FF0D2
:10018000000101602648016829B1EFF3098121E9E6
:10019000F00F00680160234909680968B1E8F00FB1
:1001A00081F3098882F310884EF0040E70471D49D0
:1001B00008601B494FF00000086018494FF001002B
:1001C00008601A481A49D0F8002041EA020101608B
:1001D00015484FF08051016016480068006880F3B0
:1001E000088861B662B670471EF0040F0CBFEFF3CB
:1001F0000880EFF3098020E9F00F40F804ED1EF0CD
:10020000040F0CBF80F3088880F3098800B507F05D
:1002100047FE5DF804EB4EF0040E7047A80E002078
:10022000A00E0020A40E002004ED00E020ED00E070
:100230000000FFFF08ED00E0064880470648004741
:10024000FEE7FEE7FEE7FEE7FEE7FEE7FEE7FEE786
:10025000FEE7FEE729540008310100082DE9F041CE
:100260000024061B254671F1000605DA012400274B
:10027000D0EB070067EB0101161E73F1000605DAEB
:100280000027D2EB0702012567EB030300F024FCF3
:1002900086460E4617469C46AC4204D00025D0EB5D
:1002A000050E65EB010624B10020D2EB000760EBE0
:1002B000030C704631463A466346BDE8F081202A79
:1002C00004DB203A21FA02F00021704721FA02F300
:1002D000D040C2F12002914008431946704740EADD
:1002E00001039B0703D009E008C9121F08C0042AB4
:1002F000FAD203E011F8013B00F8013B521EF9D29B
:100300007047D2B201E000F8012B491EFBD27047C2
:100310000022F6E710B513460A4604461946FFF7D1
:10032000F0FF204610BD034611F8012B00F8012B09
:10033000002AF9D1184670470FB400B58DB010A946
:1003400009900B9000914FF0FF300A9000200C9024
:1003500005480690054807906A4609A80F9900F0DD
:1003600013FC0DB05DF814FBA50B0008C30B0008CF
:100370002DE9FF5FD2E901A74FF000089169994686
:100380001446DDF838B0464601988847054659EAD4
:100390000B0005D009E0A169761C01988847054645
:1003A000216A284688470028F5D1681C03D05FEAF7
:1003B000CA7005D015E04FF0FF3004B0BDE8F09FE3
:1003C0002068011D2160D0F800800AE05FEACA7051
:1003D00001D108F8015BA169761C7F1E019888474E
:1003E0000546002F1ADD681C18D0B9F1000F0DD09A
:1003F000E81705EBD060421120F01F0059F82210D9
:100400002A1A012090400142E0D107E0BBF1000F21
:10041000DCD1216A284688470028D7D0E1690198B5
:100420008847BBF1000F07D1002E05DD5FEACA70D7
:1004300002D1002188F80010A068B84203DDBBF1AA
:10044000000F03D017B16FF00100B6E73046B4E7F4
:10045000F0B480EA0102D40F4200B2EB410F02D2A5
:100460000246084611464A0042D0C30DDDB2C1F330
:10047000C752AD1A202D35DAC1F3160141F400023E
:1004800004B15242C5F1200602FA06F12A41104495
:10049000B3EBD05F23D0C4B1012DA0EBC35009DC76
:1004A000F0BC4FF0004202EAC352DBB200F500009C
:1004B00000F0AEBB400000F1807000EBC350A0F133
:1004C000807040EAD170490009E0490841EAC071F2
:1004D000A0EBC35000F50000400800EBC350F0BC97
:1004E00000F08DBB6142012202EB4101001BF6E7E7
:1004F000F0BC704781F00041AAE780F00040A7E718
:1005000080EA010210B502F00043400022D04A0008
:100510001FD0010E01EB1261C0F35600C2F3560268
:1005200040F4000042F40002A0FB022000047F39E6
:10053000140400D0401C50EA124001D44000491E6F
:10054000C2B20C0604EBD010401C4008802A02D036
:1005500003E0002010BD20F00100002900DA002097
:10056000184310BD30B480EA010202F0004530F0BB
:10057000004221F0004013D090B1C30DD40DC2F35E
:100580001601C0F31600E41A41F4000140F4000221
:100590007D34914201D3641C00E04900002C02DA52
:1005A00030BC002070474FF400000023914201D37B
:1005B000891A034340084FEA4101F7D151B19142F2
:1005C00002D14FF0004105E002D24FF0010101E0FD
:1005D0006FF0010103EBC450284430BC00F00FBBA6
:1005E0002DE9FE4F804681EA0300C00F0C460090C3
:1005F00021F0004123F00045B8EB0200A94105D2EB
:100600004046214690461C460B46024623F00040D9
:10061000104347D0270DC7F30A00C3F30A510290D5
:10062000401A019040286BDAC3F3130040F4801B9A
:100630000098924620B10023D2EB030A63EB0B0B28
:1006400001985946C0F14002504600F076FA06463D
:100650000D4650465946019A00F07EFA10EB08000C
:100660006141002487EA115284EAE7731A4340D0BB
:10067000009A62B3019A012A4FEA075215DC001B67
:1006800061EB02014FF0004202EA0752CDE900425D
:10069000001C41F5801132462B4600F0F6FA03B0FB
:1006A000BDE8F08F40462146F9E7001B61EB0201EF
:1006B000001C41F5801300185B412018A2F50017BB
:1006C00047EB030140EAD570B6196D4111E06D08A2
:1006D0004FEA360645EAC0754FEA0752001B61EB48
:1006E0000201001C41F5801149084FEA3000001951
:1006F000514132462B4603B0BDE8F04F00F0B6BA88
:100700000098012240000023D0EB020263EBE0736B
:10071000009821464FEAE074B8EB000061EB040159
:10072000E9E783F000435BE781F0004158E72DE9FA
:10073000FE4F81EA030404F0004421F000410094DC
:100740004FF0000B23F0004350EA01045ED052EA60
:1007500003045BD0C3F30A54C1F30A552C44A4F23A
:10076000F3340194A0FB0254C1F3130141F480114E
:10077000C3F3130343F4801301FB024400FB034E55
:10078000840A970A44EA815447EA8357A4FB07681E
:1007900002958D0A05FB07854FEA932C04FB0C5448
:1007A0002705029D4FEA065847EA1637B5EB0805BC
:1007B0006EEB070C870E920E47EA811742EA83120E
:1007C000A7FB0201B6EB0B0164EB00042B0D43EA1F
:1007D0000C335E1844EB1C50DA465146E7FB02012D
:1007E000C5F313044FEA0B3343EA14534FEA0432C0
:1007F000019C43EA0603A4F10C040294009CCDE999
:1008000000B400F042FA03B0BDE8F08F00200146CA
:10081000F9E72DE9F04D81EA030404F0004B21F0E3
:10082000004514464FF0000A23F0004150EA05024B
:1008300020D054EA01021DD0C5F30A570246C5F381
:100840001303C1F31300C1F30A5640F4801543F4B7
:100850008013A7EB0608101BD64608F2FD3873EB91
:10086000050002D308F1010801E092185B41B8F1DC
:10087000000F03DA00200146BDE8F08D00204FF4A0
:100880008011064684460EE0171B73EB050705D35F
:10089000121B63EB050306434CEA010C49084FEABF
:1008A000300092185B4150EA0107EDD152EA030093
:1008B00012D082EA040083EA0501084305D0101B28
:1008C000AB4106D20122002306E000224FF0004394
:1008D00002E06FF0010253101AEB06004CEB0851D6
:1008E00010EB0A0041EB0B01BDE8F04D00F0BEB982
:1008F000C10F80EAE0700844CA079623002100F087
:1009000087B996230022114600F082B9F0B4CA17C5
:10091000CB0F50405140C61841F100054FEAC37259
:10092000314628004FF0960303D0B623F0BC00F008
:100930006FB930460021F9E700F0004220F0004096
:10094000C10DC0F3160040F400007F2901DA002039
:100950007047962903DCC1F19601C84001E0963941
:100960008840002AF4D04042704720F00040C10D7A
:10097000C0F3160040F400007F2901DA0020704720
:10098000962903DCC1F19601C8407047963988402A
:100990007047C1F30A5210B5C1F3130140F2FF339F
:1009A00041F480119A4201DA002010BD40F2334335
:1009B0009A42A2F2334203DC5242FFF780FC10BDA0
:1009C000904010BD00F0004230F000400AD0C10D50
:1009D00001F56071C0F3160042EA0151C2084007F8
:1009E00011437047002001467047000030B5041ED7
:1009F00071F1000404DB4FF00044404264EB01015C
:100A0000141E73F1000405DB1C464FF000435242F4
:100A100063EB04038B4208BF824230BD30B5041E35
:100A200071F1000404DB4FF00044404264EB01012B
:100A3000141E73F1000405DB1C464FF000435242C4
:100A400063EB0403994208BF904230BD01F00043BC
:100A500030B421F0004150EA010206D00A0DA2F59F
:100A60006072C1F31301002A02DC30BC0020704721
:100A7000440F44EAC104C100E01830BC00EBC2508E
:100A800000F0BDB8002801DBC0F10040002901DB07
:100A9000C1F1004181427047002801DBC0F10040F4
:100AA000002901DBC1F100418842704730B50B4697
:100AB000014600202022012409E021FA02F59D428E
:100AC00005D303FA02F5491B04FA02F52844151E62
:100AD000A2F10102F1DC30BD2DE9F05F05460020F6
:100AE00092469B4688460646814640241BE028469F
:100AF000414647462246FFF7E2FB53465A46C01A94
:100B0000914110D311461846224600F016F82D1ACE
:100B100067EB01084F4622460120002100F00DF846
:100B200017EB00094E41201EA4F10104DFDC48460A
:100B300031462A464346BDE8F09F202A04DB203A8E
:100B400000FA02F1002070479140C2F1200320FA20
:100B500003F3194390407047202A06DBCB17203A55
:100B600041FA02F043EAE07306E041FA02F3D040B2
:100B7000C2F12002914008431946704702681144AF
:100B80001378016018467047D160044951610449E7
:100B9000116200211161114600F0F6B87D0B0008CA
:100BA0007D0D0008426842B1016811F8013B23B194
:100BB000521EC0E90012184670470121C160881E0C
:100BC000704742685AB1C368016843B983688B4271
:100BD00005D0491E521CC0E90012002070474FF09A
:100BE000FF3070477CB50023CDE9003305466846E9
:100BF00000F07BFA6946284606F0F0F87CBD002933
:100C0000A8BF7047401C490008BF20F00100704792
:100C100010B4B0FA80FC00FA0CF050EA010404BFF2
:100C200010BC704749B1CCF1200421FA04F411FA48
:100C30000CF118BF012121430843A3EB0C01CB1D8C
:100C40004FEA00614FEA102042BF002010BC7047FD
:100C500000EBC35010440029A4BF10BC7047401CD7
:100C6000490008BF20F0010010BC704710B5141EE9
:100C700073F1000408DA401C41F1000192185B4155
:100C80001A4301D120F0010010BD2DE9F04D92462C
:100C90009B4611B1B1FA81F202E0B0FA80F2203243
:100CA0009046FFF74AFF04460F4640EA0A0041EA31
:100CB0000B0153465A46084313D0114653EA01002C
:100CC00019D0C8F140025046FFF7F9FA05460E4622
:100CD000504659464246FFF730FF084305D00120F1
:100CE00004E020463946BDE8F08D0020054346EA81
:100CF000E0762C4337430A986305E40AA0EB08002A
:100D00000022FD0A44EA47540A3002D50020014679
:100D1000E9E7010510196941DDE908450019694154
:100D2000BDE8F04DA2E7C1F30A52C1F3130140F24E
:100D3000FF3341F480119A4202DA002001467047E5
:100D400040F233439A42A2F2334202DC5242FFF7AE
:100D5000B6BAFFF7F2BE0000064C074D06E0E068A9
:100D600040F0010394E8070098471034AC42F6D3F2
:100D7000FFF7E2F9109F0008309F0008C0B24FF45F
:100D8000F05100F0E5B900002DE9F34F8BB04FF0C2
:100D9000000801F10C000C464FF0010B46460DF126
:100DA000080A01906269012101989047051E2DD023
:100DB000252D2CD0216A8847C0B162690121019894
:100DC0009047216A88470028F7D1411E626901983F
:100DD000904700E0761CA1690B988847216A8847F4
:100DE0000028F7D1E1690B988847DBE7A1690B98E8
:100DF00088470746A84201D1761CD3E7E1690B98E2
:100E000088477F1C02D1B8F1000F6FD046E1002760
:100E100062693D463946019890472A2804D16269A3
:100E20000121019890470125DFF884926269012130
:100E300001989047A0F130010A290AD24F45E5DC1C
:100E400007EB870100EB4107303FDFD445F0100589
:100E5000ECE7E90601D46FF000476C280AD04C2873
:100E600014D0682815D06A280DD074281CD07A2890
:100E70001AD01DE062690121019890476C2802D0C8
:100E800045F0040514E045F002050DE045F02005AD
:100E90000AE06269012101989047682802D045F074
:100EA000080505E045F40065626901210198904755
:100EB000C4E9015765283DD019DC58287AD00CDCEC
:100EC000452837D004DC252826D0412831D131E00F
:100ED00046282FD047282CD12CE05B2877D06128DA
:100EE00028D063287CD0642823D15AE0D0E06F2832
:100EF00048D008DC66281DD067281BD0692821D07F
:100F00006E2816D127E0702845D0732868D0752840
:100F100047D078280DD14DE0A1690B988847054648
:100F200025283FF469AFE1690B9888476D1C3FF4B1
:100F30006AAFB3E023466A466FF001000B9900F0F8
:100F4000AFF99EE045F040006060A80723464FF0EF
:100F5000000236D43EE0E8077FF447AF2068011D69
:100F600021600068290501D506701BE7290701D516
:100F7000068017E7A90703D5F117C0E9006111E75B
:100F800006600FE745F040006060A80723464FF079
:100F9000080216D41EE040F60E0125EA010060604A
:100FA00016E045F040006060A80723464FF00A02B3
:100FB00007D40FE045F040006060A80708D523463D
:100FC00010226FF001000B99AFF3008059E007E0A9
:100FD000234610226FF001000B99AFF3008050E020
:100FE0004FF000094F464B46632802D05B2806D0DD
:100FF00040E0E80601D40120A06001273AE06269E0
:101000000121019890475E2805D14FF001096269DE
:10101000494601989047216939B900210A4653464B
:1010200043F82120491C0829FADBB0B3216969B9CA
:10103000C11700EBD16253110AEB830122F01F02AA
:10104000821A01200B68904003430B606269012102
:10105000019890475D28E8D1B9F1000F09D0002030
:10106000514651F82020D24341F82020401C082846
:10107000F7DB02AB224600976FF001000B99FFF7F8
:1010800077F900280CDA401C08D1BBF1000F05D01D
:101090004FF0FF300DB0BDE8F08FFFE74046F9E7B5
:1010A000E90701D108F1010806444FF0000B79E689
:1010B000CCCCCC0C0FB4002300B589B00CA90091A6
:1010C0000B996FF00042CB601E4B06931E4B0793AB
:1010D0000423CDE901321D4A089202466B460020E6
:1010E00000F0DEF809B05DF814FB70B586B0064676
:1010F0004FF0FF300091CDE90101002015460C466C
:1011000004903246694604A8FFF7D4FF02460498CB
:10111000211825B108B1084600E02046286004984F
:1011200000280DD0002A02DD0098884208D0081B54
:101130000094CDE901043246694604A8FFF7BAFFDE
:1011400006B070BDA50B0008C30B00087D0D00089C
:101150007F2801D9002208E0064A02EB5002C007AE
:10116000127800D1120902F00F02012090400840CD
:1011700070470000B99E00082DE9FF4F087883B042
:101180009946FF2805D0491C2D2804D000240020B2
:1011900008E000200BE00124F9E700EB800003EBFE
:1011A0004000491C0B78FF2BF7D104B140420023CB
:1011B0000293147819461D462D2C01D02B2C04D1F6
:1011C000521C2D2C13D000240294AA461478FF2C14
:1011D0000FD00A25A3FB057801FB05814FF0000C19
:1011E00003FB0C11521CE3194AEB0101EEE7012449
:1011F000EAE7814453EA010002D019F5C87F06DA14
:1012000003980021C0E9001107B0BDE8F08F002568
:10121000AE4E2F46DFF8B882184600F076F9CDE9D9
:101220000001B9F1000002DAC9F1000400E004464F
:101230000023A74A1AEB030B42EB045A12E0E00723
:1012400007D02A46334638464146FFF770FA07462C
:1012500088462A46334610461946FFF768FA05467F
:101260000E466410002CEAD1DDE90001B9F1000F4F
:101270005A46534606DAFFF7CCFA3A464346FFF79A
:10128000C8FA05E0FFF753FA3A464346FFF74FFA2C
:10129000029A0AB181F00041039AC2E90001B3E762
:1012A0002DE9FF4F1F468DB0D7E901464FF0FF38BB
:1012B0002E2045464FF000090B90B9696D1C0E9821
:1012C0008847396A824688470028F6D1BAF1FF3F3D
:1012D0000AD024F4D064002E11DDBAF12B0F08D00F
:1012E000BAF12D0F0BD102E0404611B08DE744F466
:1012F0008064B9696D1C0E9888478246761E6946DF
:10130000600501D52D2000E02B208DF8000001F1B3
:10131000010B0DF1200809E0B9696D1C0E98884792
:1013200082460F9844F40074761E0560002E02DD9C
:10133000BAF1300FF0D00B998A453ED144F08004C9
:1013400006E00F99681CA9F1010944F400740860D3
:10135000B9696D1C761E0E98884782463028F0D0F9
:101360002BE00B998A4505D1200603D444F0800474
:10137000761E18E0504605F095FE08B30DF11301F6
:10138000761E44F400748B4508D2AAF130000BF8A5
:10139000010B200607D5A9F1010003E0200602D4C5
:1013A00009F101008146A00502D50F99681C08606B
:1013B000B9696D1C0E9888478246002ED1DC53E037
:1013C000002E51DDBAF1650F02D0BAF1450F4BD1B5
:1013D000A00549D5B9696D1C24F44074761E0E9899
:1013E00088478246002E0CDD2B2804D0BAF12D0F41
:1013F00007D144F48074B9696D1C0E988847824601
:10140000761EE00501D52D2100E02B2108F8011BF7
:10141000CDF82C8021E00DF12901761E44F40074F2
:1014200088450CD2AAF1300010F0FF0088F80000C7
:1014300002D10B99884509D908F1010806E0E005B9
:1014400001D5244801E042F20F708146B9696D1C54
:101450000E98884782460F980560002E04DD50469E
:1014600005F020FE0028D6D1F9690E988847FF20A4
:101470008BF8000088F800000020069007904B468B
:101480006A4608A906A8FFF777FEA00502D46FF008
:1014900001002AE714F0240F0AD0E00714D1DDE997
:1014A00006123868031D3B600068C0E900120BE0BB
:1014B000DDE90601FFF7CAFA0146E00704D1386802
:1014C000021D3A600068016028460EE700001440E3
:1014D0000000F03FF1D8FFFF0020704770B521F009
:1014E000004303430CD0C1F30A550024D5EB040597
:1014F00064EB0403D617AD1AB34102DB00200146AA
:1015000070BD201841EB025170BD0EB540F2334260
:1015100002920022CDE900221346FFF7B6FB03B08A
:1015200000BD70B58C1810F8015B15F0070301D1F0
:1015300010F8013B2A1106D110F8012B03E010F836
:10154000016B01F8016B5B1EF9D12B0705D4002359
:10155000521E0DD401F8013BFAE710F8013BCB1AFB
:10156000921C03E013F8015B01F8015B521EF9D5F0
:10157000A142D8D3002070BD10B508F0DBFA0020DE
:1015800010BD000094B007F069FE044607F0A4FE09
:1015900007F076FA3AE04FF0FF3318220EA91C4804
:1015A000006806F0F3FF00282DD11AA10EA807F05D
:1015B00027FC00BB08E00023302202A9194800687C
:1015C00006F0E4FF00B100E0F5E700BF04F0A4FF7F
:1015D00015A005F0D7FB06F06BFB07F03FFE0446B5
:1015E00007F07AFE1648006807F00EFE06F070FB62
:1015F00007F046FA07E0DDE91201CDE900010EA887
:101600000FC804F06DFB012000F0F0F8C3E7000004
:101610003800002048414E444C4520535441525418
:10162000000000003C000020537769746368207458
:101630006F2048414E444C45204D6F64650D0A00B3
:10164000100000202DE9F04704460E46154665615E
:10165000A66131462846FEF74DFFE063D4E90F014D
:10166000FEF748FF80462168FEF74AFF6062E16BA3
:101670006068FEF745FFA062616BA163216B616347
:101680004FF08040216CFEF73BFF8146E16BFEF797
:1016900034FF8046616CFEF7DBFE2063216BA0689F
:1016A000FEF72EFFE062D4E90901FEF7D1FE814684
:1016B000E16AFEF7CDFE8046FFF73EF90746384661
:1016C000FFF716F98046E169FEF7C2FE2062206A44
:1016D000E061216C6164E16B2164206ABDE8F08700
:1016E00010B504462CB96B2108A000F0F9F800BF32
:1016F000FEE70021A163616321632162E162A162CF
:10170000616261642164E16310BD00002E2E5C42C1
:1017100073705C416C676F5C5372635C616C676F84
:101720005F7069642E6300000A6802604A68426064
:101730008A688260704700BFFEE730B590F840507D
:101740000124AC40C56B6C60046863604468102C75
:1017500004D10468A2600468E16003E00468A16049
:101760000468E26030BD00009AB0002400BF00BFF2
:1017700018E04FF0FF310C48006807F07DFA70B9AF
:1017800001A90A4800F068FAC4B244B101A803F004
:101790008FFF2246002101A806F090FE00240120C0
:1017A00000F024F8E5E70000300000205802002097
:1017B0007047000008B50024002512E00023042231
:1017C00069460848006806F0E1FE00B9009C06483A
:1017D00005692146284608F0DDF94FF4167000F03F
:1017E00005F8EBE7400000204806002010B504464D
:1017F000204607F0FFFC10BD32280AD2002105E088
:10180000002200E0521C082AFCDB491C8142F7D36D
:1018100019E000EBC0024FF0E0235A6100229A6108
:1018200001221A6100BF4FF0E022116901F00102AC
:101830001AB101F48032002AF5D000224FF0E023E3
:101840001A619A6100BF704770B505460E460024C4
:101850002BE004EB440105EBC10002F0F9FA04EBC4
:10186000440105EBC10002F0D4FB04EB440005EB9E
:10187000C00040680E4988420FD004EB440005EBDD
:10188000C00040680B49884207D004EB440005EBD8
:10189000C00040680849884205D104EB440105EBCB
:1018A000C10002F03DFB601CC4B2B442D1DB70BD8C
:1018B00000002110000011100000311010B5044686
:1018C000228891B20022206900F054FC10BD10B5AE
:1018D0000446228891B20122206900F04BFC10BD21
:1018E00070B504460D4604A005F04CFA2A46214680
:1018F00006A005F047FA70BD2D3E48617070656E18
:10190000204572726F722121210D0A002D3E457211
:10191000726F7220506172616D65746572732056CA
:10192000616C75653A2066696C65202573206F6E61
:10193000206C696E652025640D0A000010B500F06A
:1019400055FC02F06DFB02F09EFB10BD10B5044685
:1019500002212046FFF778FF10BD2DE9F041074630
:101960000D460024384602F0CAFB002615E0384632
:1019700002F0B3FB022002F099FB384602F0A4FB10
:101980006006040E384602F097FB08B1601CC4B232
:10199000012002F08BFB701CC6B2082EE7DB1DB1E4
:1019A000384602F0DCFB02E0384602F0F0FB20464D
:1019B000BDE8F08170B506460C46304602F0BBFB30
:1019C000304602F08AFB00251CE004F0800018B1CC
:1019D000304602F08BFB02E0304602F0A3FB6006CB
:1019E000040E022002F062FB304602F06DFB022082
:1019F00002F05CFB304602F070FB022002F056FB66
:101A0000681CC5B2082DE0DB70BD10B50446204649
:101A100002F091FB204602F069FB204602F054FBE5
:101A2000042002F043FB204602F07CFB042002F07D
:101A30003DFB204602F051FB10BD10B50446204688
:101A400002F079FB204602F048FB204602F06AFBD8
:101A5000042002F02BFB204602F036FB204602F069
:101A600045FB042002F022FB10BD70B505460024A2
:101A7000284602F044FB284602F038FB012002F021
:101A800015FB284602F020FB012002F00FFB08E0C6
:101A9000601CC4B2FA2C04DD2846FFF7CEFF0120FB
:101AA00070BD284602F008FB0028F1D1284602F05C
:101AB00014FB0020F4E710B50446204600F08EFB2E
:101AC00010BD10B50446204602F07AFB204600F017
:101AD0005DFB10BD70B504460D46606E32281BD10B
:101AE00094F86C0030B1042807D0082808D00C28DE
:101AF0000CD108E0206845630DE0206885630AE0AA
:101B00002068C56307E02068056404E0D42103A0D1
:101B1000FFF7E6FE00BF00BF70BD00002E2E5C4444
:101B200072697665725C5372635C6472765F686139
:101B30006C5F70776D2E630070B505460E4600240D
:101B400013E004EB041105EBC10002F0B1FD04EB5E
:101B5000041105EBC10002F025FE04EB041105EBB6
:101B6000C10002F039FF601CC4B2B442E9DB70BDB1
:101B700010B5044602F08CFF204603F045FA2046DB
:101B800003F01EF8204603F08DF8204602F0EAFF2D
:101B9000204602F07FFF204603F00EF9204603F0B6
:101BA000BFF9204603F014FA94F8C900012819D1AE
:101BB00000BF04F184006063A820045100BFDE214F
:101BC000085B05F0FBFEE02108512068C06840F08A
:101BD00010002168C860DE20025BE0200159204629
:101BE00001F024F994F8C80001280BD100BF04F1DA
:101BF00040002063646600BFEA21085B05F0DEFE5A
:101C0000EC21085110BD38B5044620680068C0F3C7
:101C1000001000B300BF0020009020680068009012
:101C200020684068009000BF00BF204601F090F897
:101C3000DE20005B616B09684968401A81B2DC20D4
:101C400001530121E5200155DE20025BE02001590E
:101C5000204601F0EBF838BD70B504460E46E5208D
:101C6000005D012801D0002070BDDC20055B691CEF
:101C70003046FEF74DFBE02001592A463046FEF77C
:101C80002EFB0021E52001552846EDE770B50446FE
:101C90000D461646FF2332462946204601F02AF912
:101CA00070BD704770470146002291F8210002285C
:101CB00008D00420886300BF002081F8200000BF06
:101CC000012070470868006820F00E000B6818605B
:101CD0000868006820F001000B68186091F8403037
:101CE00001209840CB6B5860012081F8210000BF93
:101CF000002081F8200000BF1046E2E701460022E4
:101D000009B9012070471E4B086898420BD21D4B41
:101D10000868C01A1423B0FBF3F080000864194867
:101D20000838C8630AE0164B0868C01A1423B0FBD1
:101D3000F3F08000086412480838C863022081F874
:101D400021000868026843F6F0708243D1E901037C
:101D50001843CB6818430B6918434B6918438B69C8
:101D60001843CB6918430243086802600020886367
:101D7000012081F82100002081F8200000BFC1E788
:101D800008040240080002402DE9F04104460D46D7
:101D900016461F464FF0000800BF94F820000128A7
:101DA00002D10220BDE8F081012084F8200000BFAC
:101DB00094F8210001282CD1022084F82100002071
:101DC000A0632068006820F00100216808603B469D
:101DD000324629462046FFF7B0FCE06A30B1206861
:101DE000006840F00E00216808600BE02068006881
:101DF00020F00400216808602068006840F00A00B4
:101E0000216808602068006840F0010021680860CF
:101E100006E000BF002084F8200000BF4FF0020859
:101E20004046BFE72DE9F847024600239C467BE188
:101E30004FF0010808FA03F4D1F8008008EA040022
:101E4000A0427DD1DFF8F4A2D1F80480A8EB0A0902
:101E5000D0453AD014DCB8F1030F50D009DCB8F10A
:101E6000000F31D0B8F1010F1CD0B8F1020F49D1E9
:101E700020E0B8F1110F18D0B8F1120F42D11EE0D6
:101E8000B9F5881F25D006DCB9F5803F20D0B9F51B
:101E9000801F37D11AE0B9F5001F18D0B9F5041F1B
:101EA00030D117E0D1F80CC02DE0D1F80C8008F14A
:101EB000040C28E0D1F80C8008F1080C23E0D1F8DC
:101EC0000C8008F10C0C1EE000BF00BF00BF00BF7B
:101ED00000BF00BFD1F80880B8F1000F02D14FF069
:101EE000040C0BE0D1F80880B8F1010F03D14FF0DA
:101EF000080C146102E04FF0080C546103E04FF04D
:101F0000000C00E000BF00BFFF2801D8904601E0B0
:101F100002F104084646FF2802D84FEA830803E08E
:101F2000A3F108084FEA88084746D6F800804FF02A
:101F30000F0909FA07F928EA09080CFA07F900E07D
:101F40007AE048EA0908C6F80080D1F8048008F071
:101F50008058B8F1805F6FD100BFDFF8E481D8F816
:101F6000188048F00108DFF8D891C9F81880C846F1
:101F7000D8F8188008F00108CDF8008000BF00BF35
:101F80004FEAB9384FEA930958F829504FEA837855
:101F90004FEA18794FF00F0808FA09F825EA080502
:101FA000DFF8A081424502D14FF0000824E0DFF8BD
:101FB0009881424502D14FF001081DE0DFF88C8185
:101FC000424502D14FF0020816E0DFF88481424515
:101FD00002D14FF003080FE0DFF87881424502D1CB
:101FE0004FF0040808E0DFF87081424502D14FF05D
:101FF000050801E04FF006084FEA83794FEA1979A6
:1020000008FA09F848EA0505DFF850814FEA930914
:1020100048F82950D1F8048008F48038B8F5803F9A
:102020000BD1DFF83C81D8F8008048EA0008DFF8DF
:102030003091C9F800800AE075E0DFF82481D8F813
:10204000008028EA0008DFF81891C9F80080D1F86C
:10205000048008F40038B8F5003F0ED1DFF80081A5
:1020600008F10408D8F8008048EA0008DFF8F0908A
:1020700009F10409C9F800800DE0DFF8E48008F1F7
:102080000408D8F8008028EA0008DFF8D49009F1A5
:102090000409C9F80080D1F8048008F48018B8F564
:1020A000801F0ED1DFF8B88008F10808D8F800804A
:1020B00048EA0008DFF8A89009F10809C9F800808B
:1020C0000DE0DFF89C8008F10808D8F8008028EAC5
:1020D0000008DFF88C9009F10809C9F80080D1F8F0
:1020E000048008F40018B8F5001F0ED1DFF87080E6
:1020F00008F10C08D8F8008048EA0008DFF8609082
:1021000009F10C09C9F800800DE0DFF8548008F1EE
:102110000C08D8F8008028EA0008DFF8449009F19C
:102120000C09C9F800805B1CD1F8008028FA03F87C
:10213000B8F1000F7FF47CAEBDE8F8870000111005
:102140000010024000080140000C01400010014056
:102150000014014000180140001C0140080001402B
:1021600000040140024693680B400BB1012000E0DF
:10217000002070470AB1016101E00B040361704760
:102180000148006870470000B00E002070B504469A
:102190000CB9012070BD4CF6CC402168086045F2B6
:1021A000555021680860D4E9001048602168A06893
:1021B0008860FFF7E5FF054606E0FFF7E1FF401BFB
:1021C000262801D90320E5E72068C0680028F4D15B
:1021D0004AF6AA20216808600020DBE701464AF69B
:1021E000AA200A68106000207047000010B5084857
:1021F000006840F0100006490860032000F0D2F8A3
:10220000002000F007F800F02BF8002010BD0000BF
:102210000020024070B504460E4800784FF47A71F1
:10222000B1FBF0F00C490968B1FBF0F5284600F06D
:1022300049FC08B1012070BD102C07D200222146B4
:10224000501E00F071F80548046001E00120F2E73B
:102250000020F0E7B80E0020BC0E0020B40E0020D5
:1022600008B5032000F09EF800BF2548806940F0C3
:102270000100234988610846806900F00100009050
:1022800000BF00BF00BF0846C06940F08050C86171
:102290000846C06900F08050009000BF00BF0022D7
:1022A00011466FF00B0000F03FF8002211466FF06E
:1022B0000A0000F039F8002211466FF0090000F022
:1022C00033F800221146501F00F02EF8002211466C
:1022D000101F00F029F800220F21901E00F024F8B2
:1022E00000220F21501E00F01FF800BF054948686A
:1022F00020F0E06040F00070486000BF08BD0000C2
:10230000001002400000014001460846002809DB99
:1023100000F01F0301229A4043099B0003F1E023D0
:10232000C3F8002100BF70472DE9F05F80460D46DD
:102330001646002704F036FD074639462A4633463E
:1023400001F00700C0F1070ABAF1040F02D94FF0FB
:10235000040A01E0C0F1070AD14600F1040ABAF10B
:10236000070F02D24FF0000A01E0A0F1030AD446A1
:102370004FF0010A0AFA09FAAAF1010A0AEA020A66
:102380000AFA0CFA4FF0010B0BFA0CFBABF1010B44
:102390000BEA030B4AEA0B042146404604F00AFD0F
:1023A000BDE8F09F00BF00F00702064B19684FF62A
:1023B000FF031940044B0B4343EA0221014B196010
:1023C00000BF70470CED00E00000FA0570B5044650
:1023D0000D460CB9012070BD5A48006800F0070096
:1023E000A8420ED25748006820F0070028435549FC
:1023F00008600846006800F00700A84201D00120EC
:10240000E9E7207800F0020002281DD1207800F0D2
:102410000400042805D14C48406840F4E0604A4973
:102420004860207800F00800082805D14648406838
:1024300040F46050444948604348406820F0F00050
:10244000A168084340494860207800F0010078B353
:102450006068012806D13C48006800F4003090B95B
:102460000120B8E76068022806D13748006800F00C
:10247000007040B90120AEE73348006800F0020068
:1024800008B90120A7E73048406820F003006168E0
:1024900008432D494860FFF773FE064609E0FFF741
:1024A0006FFE801B41F28831884202D9032092E7F7
:1024B00007E02548406800F00C006168B0EB810F30
:1024C000EDD12048006800F00700A8420ED91D4851
:1024D000006820F0070028431A4908600846006891
:1024E00000F00700A84201D0012074E7207800F036
:1024F0000400042807D11448406820F4E060E16833
:10250000084311494860207800F00800082808D1E5
:102510000D48406820F46050216940EAC1000A4932
:10252000486000F03FF808494968C1F30311074AC1
:10253000515CC8400649086006480068FFF76AFE1B
:10254000002048E70020024000100240A19E000841
:10255000BC0E0020B40E0020014800687047000047
:10256000BC0E002000B5FFF7F7FF04494968C1F32E
:102570000221034A515CC84000BD00000010024027
:10258000B19E000800B5FFF7E7FF04494968C1F3B1
:10259000C221034A515CC84000BD00000010024047
:1025A000B19E0008F0B585B00FF26C0C9CE8E0100D
:1025B00001A8A0E8E0101CA52D68009500210022CC
:1025C000002300240020194D696801F00C05F5B1C5
:1025D000042D02D0082D19D101E0154819E001ADF4
:1025E000C1F38346AC5D01F4803555B10F4D6D6884
:1025F000C5F340451DF805200D4D6543B5FBF2F3CD
:1026000002E00C4D04FB05F3184602E000BF084849
:1026100000BF00BF05B0F0BD0203040506070809AE
:102620000A0B0C0D0E0F10100102000000100240EA
:1026300000127A0000093D00F8B504460CB90120EB
:10264000F8BD207800F00100002878D0F8484068F4
:1026500000F00C0004280CD0F548406800F00C0095
:10266000082811D1F248406800F48030B0F5803F6E
:102670000AD1EF48006800F4003000285FD060689D
:1026800000285CD10120DBE700BF6068B0F5803F27
:1026900006D1E748006840F48030E549086028E04A
:1026A000606858B9E248006820F48030E04908606A
:1026B0000846006820F4802008601AE06068B0F5E1
:1026C000A02F0BD1DA48006840F48020D849086078
:1026D0000846006840F4803008600AE0D44800688A
:1026E00020F48030D24908600846006820F4802039
:1026F000086000BF606888B1FFF742FD054606E04C
:10270000FFF73EFD401B642801D9032098E7C84825
:10271000006800F400300028F2D010E0FFF730FD30
:10272000054606E0FFF72CFD401B642801D9032075
:1027300086E7BF48006800F400300028F2D1207816
:1027400000F00200022857D1B948406800F00C00A0
:1027500050B1B748406800F00C00082818D1B448C0
:10276000406800F4803098B9B148006800F0020079
:1027700020B12069012801D0012061E7AC48006840
:1027800020F0F800616940EAC100A949086033E01F
:102790002069E8B10120A7490860FFF7F1FC054670
:1027A00006E0FFF7EDFC401B022801D9032047E7B4
:1027B0009F48006800F002000028F2D09C480068A2
:1027C00020F0F800616940EAC1009949086013E00F
:1027D000002098490860FFF7D3FC054606E0FFF7A4
:1027E000CFFC401B022801D9032029E7904800684C
:1027F00000F002000028F2D1207800F0080008283C
:102800002DD1A069B8B101208B490860FFF7B8FC51
:10281000054606E0FFF7B4FC401B022801D903205F
:102820000EE78348406A00F002000028F2D0012041
:1028300001F0F2FA13E000207F490860FFF7A0FCE6
:10284000054606E0FFF79CFC401B022801D9032047
:10285000F6E67748406A00F002000028F2D12078BE
:1028600000F00400042873D100277148C06900F00B
:10287000805070B900BF6E48C06940F080506C490C
:10288000C8610846C06900F08050009000BF00BFDA
:1028900001276A48006800F48070B0B96748006892
:1028A00040F4807065490860FFF76AFC054606E061
:1028B000FFF766FC401B642801D90320C0E65F488F
:1028C000006800F480700028F2D000BFE0680128A2
:1028D00006D15748006A40F001005549086227E0D8
:1028E000E06858B95248006A20F001005049086277
:1028F0000846006A20F00400086219E0E068052834
:102900000BD14B48006A40F0040049490862084670
:10291000006A40F0010008620AE04548006A20F0C1
:102920000100434908620846006A20F0040008627A
:1029300000BFE068A0B1FFF723FC054609E0FFF700
:102940001FFC401B41F28831884202D9032077E600
:1029500022E03748006A00F002000028EFD012E0C1
:10296000FFF70EFC054608E0FFF70AFC401B41F2AA
:102970008831884201D9032062E62D48006A00F0C0
:1029800002000028F0D1012F05D12948C06920F0AC
:1029900080502749C86100BFE069C8B32448406837
:1029A00000F00C00082860D0E069022848D100201F
:1029B00020490866FFF7E4FB054606E0FFF7E0FB69
:1029C000401B022801D903203AE61948006800F0AC
:1029D00000700028F2D1206AB0F5803F07D114487A
:1029E000406820F40030A168084311494860D4E9E8
:1029F000080108430E49496821F4741108430C4941
:102A0000486001200B490866FFF7BAFB054607E05E
:102A10003DE0FFF7B5FB401B022801D903200FE67C
:102A20000348006800F000700028F2D02FE000009A
:102A30000010024000004242800442420070004008
:102A4000002014490866FFF79BFB054606E0FFF7E8
:102A500097FB401B022801D90320F1E50E480068CE
:102A600000F000700028F2D111E0E069012800D1E7
:102A7000E6E50948466806F48031206A814204D1BF
:102A800006F47011606A814201D00120D8E500206F
:102A9000D6E500000000424200100240042808D1A0
:102AA0004FF0E021096941F004014FF0E02211618B
:102AB00007E04FF0E021096921F004014FF0E02226
:102AC0001161704770B504462546681EB0F1807FDD
:102AD00001D301200FE0681E4FF0E02148610F2173
:102AE0004FF0FF3004F066F900204FF0E0218861DC
:102AF00007200861002070BD70B504460D461646DB
:102B000000BF94F83C00012801D1022070BD0120D3
:102B100084F83C0000BF36B1042E1BD0082E31D003
:102B20000C2E5ED145E02946206802F0E5FC2068C5
:102B3000806940F00800216888612068806920F081
:102B40000400216888612068806929690843216838
:102B5000886147E02946206802F006FD2068806908
:102B600040F40060216888612068806920F48060FA
:102B70002168886120688069296940EA012021680C
:102B800088612FE02946206802F02CFD2068C0698A
:102B900040F008002168C8612068C06920F0040086
:102BA0002168C8612068C069296908432168C86133
:102BB00018E02946206802F051FD2068C06940F401
:102BC00000602168C8612068C06920F480602168C5
:102BD000C8612068C069296940EA01202168C8618C
:102BE00000E000BF00BF00BF002084F83C0000BF31
:102BF00000BF8BE710B504460CB9012010BD94F856
:102C00003D0028B9002084F83C00204600F025F85B
:102C1000022084F83D00211D206802F00DFC0120F7
:102C200084F8460000BF84F83E0001213F20015592
:102C3000402001554120015500BF00BF012084F80C
:102C4000420043200155442001554520015500BF55
:102C5000012084F83D000020D0E7704770B504469D
:102C60000D4615B994F83E000BE0042D02D13F202B
:102C7000005D06E0082D02D14020005D01E041200A
:102C8000005D012801D0012070BD1DB9022084F82B
:102C90003E000EE0042D03D102213F20015508E043
:102CA000082D03D102214020015502E002214120DC
:102CB000015501222946206802F00CFC1F492068BA
:102CC000884203D01E492068884201D1012000E0DB
:102CD000002028B12068406C40F40040216848641E
:102CE00016492068884213D01549206888420FD0C1
:102CF0002068B0F1804F0BD012492068884207D07D
:102D000011492068884203D01049206888420CD1BC
:102D10002068806800F00706062E0CD02068006846
:102D200040F001002168086005E02068006840F07C
:102D30000100216808600020A6E70000002C014087
:102D4000003401400004004000080040000C004036
:102D500070B50446002520684069C0F3C01594F89A
:102D6000390021280ED16DB12068406920F0800023
:102D700021684861206B10B1206BFEF794FF20465C
:102D800003F03EFD20684069C0F3801594F83A00D6
:102D900022280ED16DB12068406920F040002168E2
:102DA0004861606B10B1606BFEF77DFF204603F059
:102DB00017FD002070BD704710B504460CB9012006
:102DC00010BDA06900B100E000BF94F8390028B937
:102DD000002084F83800204600F027F8242084F8EA
:102DE00039002068C06820F400502168C86020467F
:102DF00003F010FD2068006920F49040216808610C
:102E00002068406920F02A00216848612068C06875
:102E100040F400502168C8600020E063202084F85E
:102E2000390084F83A000020CAE7704777B581B0CE
:102E30000446154694F83A00202850D1029800B173
:102E400015B9012004B070BD00BF94F83800012806
:102E500001D10220F6E7012084F8380000BF029873
:102E6000A062A5850020E063222084F83A001D4876
:102E7000616B88621C48616BC8621C48616B0863A7
:102E80000020616B486302AE32682368191D2B462F
:102E9000606BFEF779FF00BF00200090206800689B
:102EA000009020684068009000BF00BF00BF002075
:102EB00084F8380000BF2068C06840F48070216842
:102EC000C8602068406940F00100216848612068BE
:102ED000406940F04000216848610020B2E70220CC
:102EE000B0E700008D670008D36700083D67000861
:102EF000704770472DE9F84F04460E46174699462D
:102F00004FF0000A94F8390020285AD106B117B9B9
:102F10000120BDE8F88F00BF94F83800012801D1E6
:102F20000220F6E7012084F8380000BF0020E063AB
:102F3000212084F83900FFF723F98246A784E7842B
:102F4000A068B0F5805F04D1206910B90025B046B3
:102F500002E035464FF0000800BF002084F838003A
:102F600000BF1BE05346002280212046CDF8009090
:102F700003F0CEFC08B10320CBE745B9B8F8000058
:102F8000C0F308002168486008F1020803E02878CF
:102F9000216848606D1CE08C401EE084E08C0028B5
:102FA000E0D15346002240212046CDF8009003F0A6
:102FB000AFFC08B10320ACE7202084F839000020E2
:102FC000A7E70220A5E700009AB0642006F016FAF1
:102FD00005463CE02B4630220EA91D48006805F04E
:102FE000D5FA0446002C30D11AA10EA805F008FF2E
:102FF000F0B900BF0023182208A91948006805F09D
:10300000C5FA0028F6D003F087FA16A003F0BAFE3E
:1030100004F04EFE06F022F9064606F05DF9174868
:10302000006806F0F1F804F053FE05F029FD0EE00B
:10303000202212A96846FDF752F90EA80FC803F026
:103040000BF9052006F0D6F801E003F0D3F8C1E74C
:103050003C0000204155544F20535441525400002D
:103060003800002053776974636820746F204155DD
:10307000544F204D6F64650D0A00000014000020BD
:1030800030B50020002100220023584C247804F0A1
:10309000800434B1564C2478012C02D100F128046C
:1030A00020B2524C247804F0400434B1504C2478BF
:1030B000012C02D1A0F1280420B24C4C247804F059
:1030C000200434B14A4C2478012C02D101F12804A7
:1030D00021B2464C247804F0100434B1444C2478D6
:1030E000012C02D1A1F1280421B2424C2478032CF6
:1030F00004D13F4C2478012C00D128223D4C247867
:10310000042C05D13A4C2478012C01D16FF0270210
:10311000364C247804F0800434B1354C2478012CEA
:1031200002D000F1B40420B2304C247804F0400402
:1031300034B12F4C2478012C02D0A0F1B40420B279
:103140002A4C247804F0200434B1294C2478012C32
:1031500002D001F1B40421B2244C247804F010040C
:1031600034B1234C2478012C02D0A1F1B40421B253
:10317000204C2478032C04D11D4C2478012C00D041
:103180005A221C4C2478042C05D1194C2478012C8B
:1031900001D06FF05E02154C247804F0080404B1ED
:1031A0008223124C247804F004040CB16FF08103E4
:1031B0000C1A141B04F2DC540F4DEC800C18A41AEA
:1031C00004F2DC546C800C181444644204F2DC54A5
:1031D000AC800C1A144404F2DC542C8003F2F55435
:1031E0006C81AC81EC812C8130BD00004800002056
:1031F0005600002049000020200D002012E04FF072
:10320000FF310948006805F037FD30B9074800F084
:1032100077F910B1054800F075F80120FEF7E6FADD
:1032200006F0BAF8EBE7000034000020A804002004
:1032300008B522E0114800F04DFA10490869FDF781
:10324000C1FB044600220E4BFDF7D0FB02D100204B
:103250000A4908610B48007858B9012009490870EB
:10326000064800690090042269460748006805F096
:103270003DFA4FF41670FEF7B9FADBE74806002076
:10328000F2B10241580000204000002000BFFEE7DC
:1032900004E003F0FBF86420FEF7A8FAF9E700BFAA
:1032A000FEE700001CB5044606A103C9CDE90001F4
:1032B00040F22D10005D8DF803006946204601F0B4
:1032C000A9F81CBDFFAA24000000000010B50446A8
:1032D000204601F02DF82046FEF74AFC204600F07B
:1032E000B7F9204600F0C8F9204600F0D9F9204689
:1032F00000F09AF92046FFF7D5FF0021204600F0A4
:1033000081F910BD70B504464FF49570005B00F470
:10331000007090B3B4F93801FDF7EAFA06464FF0B1
:103320008E41FDF71FF905464FF08341FDF7E8F8A0
:103330004FF4A0710851B4F93A01FDF7D9FA0646E5
:103340004FF08E41FDF70EF905464FF08341FDF732
:10335000D7F84FF4A2710851B4F93C01FDF7C8FA4F
:1033600006464FF08E41FDF7FDF805464FF08341CC
:10337000FDF7C6F84FF4A47108514FF49570005B47
:1033800000F4806078B3B4F94C01FDF7B1FA064659
:103390004FF08E41FDF7E6F805465749FDF7B0F8C6
:1033A0004FF4AA710851B4F94E01FDF7A1FA06468F
:1033B0004FF08E41FDF7D6F805464F49FDF7A0F8CE
:1033C0004FF4AC710851B4F95001FDF791FA06467B
:1033D0004FF08E41FDF7C6F805464749FDF790F8D6
:1033E0004FF4AE7108514FF49570005B00F400602B
:1033F00078B3B4F96001FDF77BFA06464FF08E41D1
:10340000FDF7B0F805463D49FDF77AF84FF4B47181
:103410000851B4F96201FDF76BFA06464FF08E4190
:10342000FDF7A0F805463549FDF76AF84FF4B67187
:103430000851B4F96401FDF75BFA06464FF08E417E
:10344000FDF790F805462D49FDF75AF84FF4B8718D
:1034500008514FF49570005B00F48050A0B1B4F9AE
:103460007401FDF745FA4FF4BE710851B4F97601C5
:10347000FDF73EFA4FF4C0710851B4F97801FDF739
:1034800037FA4FF4C27108514FF49570005D00F0A7
:10349000020078B3B4F98801FDF72AFA05464FF027
:1034A0008E41FDF75FF84FF4C8710851B4F98A01F5
:1034B000FDF71EFA05464FF08E41FDF753F84FF425
:1034C000CA710851B4F98C01FDF712FA05464FF0A4
:1034D0008E41FDF747F84FF4CC710851B4F98E01D5
:1034E000FDF706FA05464FF08E41FDF73BF84FF425
:1034F000CE71085170BD00000000FA440000344352
:1035000030B50146E520405C002879D000206DE010
:10351000E0225258125C552A66D10023002206E0B0
:10352000E02464588518645D1C44E3B2521C0A2AE6
:10353000F6DBE022545800F10A02A25C9A4251D113
:10354000E0225458421CA25C503A0A2A48D2DFE8D2
:1035500002F005101B2631474747473CE0225458EC
:10356000821C14442568C1F82E516468C1F83241A8
:1035700037E0E0225458821C14442568C1F83851C1
:103580006468C1F83C412CE0E0225458821C144489
:103590002568C1F84C516468C1F8504121E0E0222F
:1035A0005458821C14442568C1F860516468C1F8FD
:1035B000644116E0E0225458821C14442568C1F886
:1035C00074516468C1F878410BE0E0225458821CC1
:1035D00014442568C1F888516468C1F88C4100E042
:1035E00000BF00E001E000BF00BF401CDC22525AD7
:1035F00082428DDC0022E5204254012030BDFFE7ED
:103600000020FBE77CB505460C4605A103C9CDE9C2
:1036100000018DF803406946284600F0FBFE7CBDA2
:10362000FFAA6300000000001CB5044606A103C900
:10363000CDE900014FF49670005D8DF803006946F6
:10364000204600F0E7FE1CBDFFAA2300000000009A
:103650001CB5044606A103C9CDE9000194F8280170
:103660008DF803006946204600F0D4FE1CBD000022
:10367000FFAA0400000000001CB5044606A103C90F
:10368000CDE9000140F22910005D8DF80300694684
:10369000204600F0BFFE1CBDFFAA03000000000092
:1036A0001CB5044609A103C9CDE900014FF495708A
:1036B000005B00128DF803004FF49570005D8DF8EB
:1036C00004006946204600F0A5FE1CBDFFAA0200CA
:1036D000000000002DE9FC5F82469AF818000628D9
:1036E00052D2DFE800F003101D2A37444021504633
:1036F00000F054FFE34908605021504600F04EFFAF
:10370000E149086040E04221504600F047FFDD49B2
:1037100008605221504600F041FFDB49086033E069
:103720004421504600F03AFFD649086054215046E3
:1037300000F034FFD449086026E04621504600F0EE
:103740002DFFD04908605621504600F027FFCE4992
:10375000086019E04821504600F020FFC949086080
:103760005821504600F01AFFC74908600CE04A2172
:10377000504600F013FFC34908605A21504600F03C
:103780000DFFC149086000BF00BFBF49DAF8300033
:103790000968A1EB0020BD4908600022DAF8340076
:1037A0000968CB17A0FB014702FB017100FB031165
:1037B0004FF4000200232046FCF750FD4FF4FA615D
:1037C0004018B34908604FF00002B048DAF82810FA
:1037D00000684FEAE073A1FB004702FB007001FBA9
:1037E00003014FF480724FF000032046FCF736FDD2
:1037F0004FF40043DAF82020A2FB0332C0185141F5
:10380000A44A03C20023A149DAF82C000968CA17A8
:10381000A0FB014703FB017100FB0211802220463F
:10382000FCF71CFD4FF48033DAF82420A2FB0332AE
:10383000C0185141984A03C295480068642190FB22
:10384000F1F42046FDF754F8CAF800008D480068EE
:1038500000229049D1E9003CA0FB036B02FB03B2BC
:1038600000FB0C214FF4001200233046FCF7F6FC5D
:10387000894AD2E90032B0EB030861EB02014FF450
:10388000005200234046FCF7E9FC0A220023CDE960
:103890000001FCF7E3FC0446FDF738F8CAF8040021
:1038A0007B480068B0F5FA6F5CDA03207749096855
:1038B00080FB013175480068C217A3FB004701FB7C
:1038C000007003FB0201002202232046FCF7C6FC25
:1038D000724908606E490968A1F5FA6101EB41017E
:1038E0006B4A1268A2F5FA6201FB02F000EBD0719C
:1038F00049106B4A116066490968A1F5FA6101EB4C
:103900008101634A1268A2F5FA6201FB02F0C11755
:1039100000EB5171C910634A11605D48006862494B
:1039200088423EDA5A48006800F2DC50C0EBC00121
:103930005748006800F2DC50594A126801FB002029
:10394000574908605248006800F2DC508100504836
:10395000006800F2DC50534A126801FB0020514914
:1039600008601EE04948006840434000C117044613
:1039700000222023FCF772FC48490860444909688A
:10398000A1F5FA61424A1268A2F5FA6201FB02F05F
:10399000C11700EB11710911414A11600020414922
:1039A00008603D48D0E900313D480068C217181A48
:1039B00061EB02013D4A03C23648D0E90030394983
:1039C0000968CA17591A60EB0200394AC2E90010A7
:1039D0002C48006800231146D1E90021A0FB026BAE
:1039E00003FB02B201FB00214FF400123046FCF74A
:1039F00035FC2E4B0CCB841A61EB03012046FCF7FF
:103A000085FF81464FF08C41FCF7ACFD804629498B
:103A1000FCF7A8FDCAF80C001D4909681F4A126886
:103A2000881AFCF765FF8046FCF7CCFF06460022AB
:103A3000214BFCF7EEFE0446FDF708F8CAF8080033
:103A4000DAF80800CAF814001C49DAF80C00FCF790
:103A500051FD1B490190FCF785FD8346FCF7B2FF41
:103A60008046184A184BFCF762FE06460022124BAD
:103A7000FCF75DFE0446FCF7E9FFCAF81000BDE85C
:103A8000FC9F0000580D00205C0D0020400D002020
:103A9000440D0020500D0020480D0020680D00202E
:103AA000600D0020640D002024FAFFFF700D00203F
:103AB000780D0020000020410000594000407D4466
:103AC00000007A449A9999999999234010B504462F
:103AD00004F13800FDF73AFF204600F0CCFD142039
:103AE000FDF784FE204600F000FD1420FDF77EFE69
:103AF000204600F0ADFC08B9002010BD0120FCE715
:103B00004848C08840F21451884202DA08464549C4
:103B1000C8804448C08840F2A461884202DD08465B
:103B20004049C8803F48408840F21451884202DA38
:103B300008463C4948803B48408840F2A46188429E
:103B400002DD0846374948803648808840F21451E3
:103B5000884202DA0846334988803248808840F239
:103B6000A461884202DD08462E4988802D480088DD
:103B700040F21451884202DA08462A49088029484E
:103B8000008840F2A461884202DD08462549088089
:103B90002448008940F25A51884202DA08462149F5
:103BA00008812048008940F28661884202DD08468B
:103BB0001C4908811B48408940F25A51884202DA68
:103BC0000846184948811748408940F28661884272
:103BD00002DD0846134948811248808940F25A5153
:103BE000884202DA08460F4988810E48808940F2EF
:103BF0008661884202DD08460A4988810948C089F1
:103C000040F25A51884202DA08460649C8810548FE
:103C1000C08940F28661884202DD08460149C881B8
:103C200070470000200D00204FF47A7076494882DA
:103C3000B42001F08BFB7449088240F2E240C88254
:103C400040F2DC5088827148007840F080006F4973
:103C50000870D8E06E480078002847D06C4800789B
:103C6000022820D16848408A401D6749488208469A
:103C7000408A40F29241884202DD08466249488209
:103C80006148408A40F6C411884202DD08465E4918
:103C900048825D48408AB0F5FA7F27DA4FF4FA701F
:103CA0005949488222E05A48007801281ED15648D6
:103CB000408A401F544948820846408AB0F5487FF0
:103CC00002DA4FF4487048824F48408A40F6C411E7
:103CD000884202DD08464C4948824B48408AB0F58C
:103CE000FA7F03DA4FF4FA7047494882494800786E
:103CF00000285CD047480078012817D14248008A44
:103D00000F38414908820846008A40F6C4118842AB
:103D100002DD08463C4908823B48008AB0F5FA7F3C
:103D200045DA4FF4FA703849088240E039480078A3
:103D3000022817D13448008A0F30334908820846D8
:103D4000008A40F6C411884202DD08462E490882E6
:103D50002D48008AB0F5FA7F29DA4FF4FA702A4923
:103D6000088224E02B48007803280ED12648808A58
:103D70000F30254988820846808A40F2FE618842D9
:103D800015DD08462049888211E022480078042881
:103D90000DD11D48808A0F381B4988820846808AC9
:103DA00040F2AA51884202DA084617498882174829
:103DB000007800F0020070B11348C08A0C38124934
:103DC000C8820846C08A40F2A641884215DA0846F1
:103DD0000D49C88211E00D48007800F0040060B180
:103DE0000948C08A0C300849C8820846C08AB0F524
:103DF000C56F02DB40F22760C882034802F056FB21
:103E00006420FDF7F3FC25E7200D00204B00002087
:103E1000490000204A00002008B508490968C9087F
:103E20004FF47A72B1FBF2F14143009100BF00BF41
:103E300000994A1E00920029F9D108BDBC0E00204D
:103E400003E04FF4FA70FDF7D1FCFAE77047000089
:103E500008B52D4A016991420DD100BF2B498969EE
:103E600041F00401294A91611146896901F0040178
:103E7000009100BF47E0264A016991420DD100BF81
:103E80002249896941F00801204A916111468969F6
:103E900001F00801009100BF35E01E4A016991421E
:103EA0000DD100BF1949896941F01001174A91618C
:103EB0001146896901F01001009100BF23E0164A04
:103EC000016991420DD100BF1049896941F020017B
:103ED0000E4A91611146896901F02001009100BFED
:103EE00011E00E4A016991420DD100BF074989696D
:103EF00041F04001054A91611146896901F0400194
:103F0000009100BF00BF08BD000801400010024042
:103F1000000C014000100140001401400018014055
:103F200010B504462068012808D1627D217D062055
:103F3000FEF7FAF90620FEF7E7F969E020680228A3
:103F400008D1627D217D0720FEF7EEF90720FEF7FC
:103F5000DBF95DE02068042808D1627D217D08201E
:103F6000FEF7E2F90820FEF7CFF951E020680828B3
:103F700008D1627D217D0920FEF7D6F90920FEF7E0
:103F8000C3F945E02068102808D1627D217D0A2010
:103F9000FEF7CAF90A20FEF7B7F939E020682028B1
:103FA0000DD0206840280AD02068802807D02068DB
:103FB000B0F5807F03D02068B0F5007F08D1627D26
:103FC000217D1720FEF7B0F91720FEF79DF91FE0BD
:103FD0002068B0F5806F13D02068B0F5006F0FD067
:103FE0002068B0F5805F0BD02068B0F5005F07D087
:103FF0002068B0F5804F03D02068B0F5004F07D19E
:10400000627D217D2820FEF78FF92820FEF77CF9BC
:1040100010BD10B5044621462069FDF703FF10BD11
:1040200000B58FB0282105A8FCF772F91421684665
:10403000FCF76EF90120059000040690002007901F
:104040000120099002200C90C1030D914FF4E01162
:104050000E9105A8FEF7F0FA08B100BFFEE70F20A9
:10406000009002200190002002904FF480600390A5
:104070000020049002216846FEF7A8F908B100BFAD
:10408000FEE70FB000BD10B5FEF766FA4FF47A7187
:10409000B0FBF1F42046FEF715FD0420FEF7FEFC10
:1040A00000220F21501EFEF73FF910BD10B5044647
:1040B0002046FDF7A1FB10BD10B50446228B91B23E
:1040C000A06AFEF74FF810BD10B50446228891B2E1
:1040D00001222069FEF74EF810BD10B50446228873
:1040E00091B200222069FEF745F810BD10B50446D4
:1040F000228B91B20122A06AFEF73CF810BD1FB5D9
:10410000044600200090019002900390A069009066
:10411000002001900290032003906946A06AFDF7F9
:1041200081FE1FBD10B50446228B91B20022A06A09
:10413000FEF720F810BD1FB5044600200090019046
:1041400002900390A069009001200190002002904D
:10415000032003906946A06AFDF764FE1FBD10B5F9
:1041600004462046FFF7B9FF2046FFF7E4FF20464C
:10417000FFF7D8FF0220FFF799FF2046FFF7A4FFC3
:104180000220FFF793FF2046FFF7A7FF10BD10B5F1
:1041900004462046FFF7A1FF2046FFF7CCFF20464C
:1041A000FFF7A4FF0220FFF781FF2046FFF78CFFF7
:1041B0000220FFF77BFF2046FFF78FFF10BD0000B6
:1041C0002DE9F0470446A08943F23331884211DDDE
:1041D00006206060A089FCF794FB8146FCF7F2FBA7
:1041E0000746474A474BFCF714FB0546FCF7D1FB53
:1041F000A06081E0A08941F69911884211DD052077
:104200006060A089FCF77DFB8146FCF7DBFB07467D
:104210003B4A3D4BFCF7FDFA0546FCF7BAFBA060B4
:104220006AE0A08940F6CC41884211DD042060603C
:10423000A089FCF766FB8146FCF7C4FB0746304AC1
:10424000324BFCF7E6FA0546FCF7A3FBA06053E00F
:10425000A08940F26661884211DD03206060A08978
:10426000FCF74FFB8146FCF7ADFB0746244A284B81
:10427000FCF7CFFA0546FCF78CFBA0603CE0A08978
:10428000B0F54D7F11DB02206060A089FCF739FB9F
:104290008146FCF797FB0746194A1E4BFCF7B9FA13
:1042A0000546FCF776FBA06026E0A089B0F5CD7F3F
:1042B00011DB01206060A089FCF723FB8146FCF73D
:1042C00081FB07460E4A144BFCF7A3FA0546FCF7A0
:1042D00060FBA06010E000206060A089FCF711FB8B
:1042E0008146FCF76FFB0746054A0C4BFCF791FA39
:1042F0000546FCF74EFBA06009482060BDE8F0874A
:104300009A99999999991940999909409999F93FD8
:104310009999E93F9999D93F9999C93F9999B93F95
:104320000030004010B51420FDF760FA10BD000009
:1043300090F828110A292ED2DFE801F005090D11A5
:1043400015191D2125294FF41661416023E04FF412
:10435000965141601FE04FF4165141601BE04FF44D
:104360009641416017E04FF41641416013E04FF46D
:10437000614141600FE04FF4E13141600BE04FF4E7
:104380006131416007E04FF4E121416003E04FF407
:104390006121416000BF00BF00BF016809B9084941
:1043A000016000BF074A0168914207D000BF90F842
:1043B000C91011B9012280F8C92000BF7047000060
:1043C00000440040005000407CB505460C460FA15B
:1043D00003C9CDE9000124B1012C06D0FF2C0CD17A
:1043E00007E000208DF8030008E001208DF80300AD
:1043F00004E0FF208DF8030000BF00BF00BF0522CE
:1044000069462846FDF742FC7CBD0000FFAA00007B
:104410000000000070B504460D46204600F00EF87E
:10442000FFF780FF052229462046FDF72FFCFFF706
:1044300079FF00212046FFF7C7FF70BD10B5044685
:10444000052202492046FDF721FC10BD709D0008A1
:10445000F0B588B00446002100260027002306E0BE
:1044600004F11C0050F823004DF823005B1C072BBF
:10447000F6DB0098C0F30B000090002007900022AC
:1044800024E0104602EBD07C4FEA6C0CA2EB4C0C03
:10449000BCF1010F04D150101DF82000414005E08F
:1044A00050105DF82000C0F30F20414008250AE0BD
:1044B00001F4004020B14FF4405080EA410100E097
:1044C0004900681EC5B2002DF2DC521C102AD8DB50
:1044D000C1F303310E46E069C0F30737BE4202D193
:1044E000012008B0F0BD0020FBE72DE9F0410446B3
:1044F000204600F0C0F81420FDF778F9002549E0C7
:1045000004F13800FDF781FAEC2104F13800FDF7E1
:1045100051FA04F13800FDF7A8FAA02000EB45009D
:10452000C1B204F13800FDF745FA04F13800FDF797
:104530009CFA04F13800FDF780FA0520FDF75CF9DC
:1045400004F13800FDF761FAED2104F13800FDF7C0
:1045500031FA0520FDF750F904F13800FDF785FA2E
:10456000012104F13800FDF7F8F906460520FDF7B2
:1045700043F9002104F13800FDF7EFF9074604F193
:104580003800FDF75AFA47EA062104F11C0040F80A
:1045900025106D1C072DB3DBBDE8F081F8B504468E
:1045A0000E46002504F13800FDF72FFAEC2104F146
:1045B0003800FDF7FFF904F13800FDF756FA3146EF
:1045C00004F13800FDF7F6F904F13800FDF74DFA73
:1045D00004F13800FDF731FA0A20FDF707F904F17C
:1045E0003800FDF712FAEC2104F13800FDF7E2F98A
:1045F00004F13800FDF739FA002104F13800FDF725
:10460000D9F904F13800FDF730FA04F13800FDF76C
:1046100014FA04F13800FDF7F8F9ED2104F138003F
:10462000FDF7C8F904F13800FDF71FFA012104F184
:104630003800FDF792F98DF80000012104F13800EF
:10464000FDF78BF98DF80100002104F13800FDF72A
:1046500084F98DF8020004F13800FDF7EEF99DF8B9
:1046600000509DF8010000EB05259DF8020000EBCD
:1046700005252846F8BD10B5044604F13800FDF7BD
:10468000C4F9EC2104F13800FDF794F904F1380085
:10469000FDF7EBF91E2104F13800FDF78BF904F169
:1046A0003800FDF7E2F904F13800FDF7C6F910BD56
:1046B00008B5364A016891420DD100BF3449896975
:1046C00041F40061324A91611146896901F4006147
:1046D000009100BF59E00168B1F1804F0DD100BFDA
:1046E0002B49C96941F00101294AD1611146C969C3
:1046F00001F00101009100BF47E0264A01689142A4
:104700000DD100BF2249C96941F00201204AD1619F
:104710001146C96901F00201009100BF35E01E4A4F
:10472000016891420DD100BF1949C96941F00401E6
:10473000174AD1611146C96901F00401009100BF17
:1047400023E0164A016891420DD100BF1049C969A2
:1047500041F008010E4AD1611146C96901F0080112
:10476000009100BF11E00E4A016891420DD100BFD7
:104770000749896941F40051054A916111468969E7
:1047800001F40051009100BF00BF08BD002C0140A2
:10479000001002400004004000080040000C0040EF
:1047A0000034014038B50446022161670121A16748
:1047B0000321E16700BF8248806940F00100804921
:1047C00088610846806900F00100009000BF00BFCA
:1047D0007C492068884230D18620005D48B900BFFE
:1047E0007949486820F0C00040F0E06000BF4860B0
:1047F000E0E08620005D01280AD100BF72494868C8
:1048000020F0C00040F0E06040F040004860D1E09F
:104810008620005D022801D100BFFEE78620005DF2
:104820000328E5D100BF6849486820F0C00040F087
:10483000E06040F0C0004860BCE02068B0F1804F0C
:1048400039D18620005D48B900BF5F49486820F42F
:10485000407040F0E06000BF4860ABE08620005D43
:1048600001280AD100BF5849486820F4407040F040
:10487000E06040F4807048609CE08620005D022883
:104880000AD100BF5049486820F4407040F0E06011
:1048900040F4007048608DE08620005D0328A7D1B9
:1048A00000BF4949486820F4407040F0E06040F49F
:1048B000407048607EE045492068884230D18620BB
:1048C000005D48B900BF4049486820F4406040F0AE
:1048D000E06000BF48606DE08620005D01280AD1DD
:1048E00000BF3949486820F4406040F0E06040F47F
:1048F000006048605EE08620005D022801D100BFB4
:10490000FEE78620005D032854D100BF2E49486889
:1049100020F4406040F0E06040F44060486049E0CE
:104920002B492068884224D18620005D40B900BF11
:104930002549486840F0E06020F48050486039E044
:104940008620005D012801D100BFFEE78620005DC2
:10495000022801D100BFFEE78620005D032829D18F
:1049600000BF1949486840F0E06040F4805048605A
:1049700020E01849206888421CD194F86C000C286B
:1049800018D18620005D40B900BF0F49486840F04B
:10499000E06020F4803048600CE08620005D032851
:1049A00008D100BF0849486840F0E06040F480301A
:1049B000486000BF012104F17000FCF745FF38BDDD
:1049C00000100240002C01400000014000040040A3
:1049D00000080040000C00402DE9F041044647204B
:1049E00060600021A1602149606EB1FBF0F0401EC3
:1049F000E06000212161A1612046FEF7FBF818B1BB
:104A00004A211BA0FCF76CFF6020A0641749606E70
:104A1000B1FBF0F0A0F101084046FBF772FF07463A
:104A2000A16EFBF76DFD06461849FBF79BFD054699
:104A3000FBF79BFFE0640021216594F86C2004F1F2
:104A400048012046FEF758F818B1582108A0FCF795
:104A500047FF94F86C102046FEF700F918B15C216E
:104A600003A0FCF73DFFBDE8F081000040420F00CD
:104A70002E2E5C4472697665725C5372635C64725C
:104A8000765F68616C5F70776D2E63000000C842CE
:104A90007047000008B52D4A016891420DD100BF52
:104AA0002B49896941F48041294A916111468969FC
:104AB00001F48041009100BF47E0264A016891421D
:104AC0000DD100BF2249C96941F40031204AD161AA
:104AD0001146C96901F40031009100BF35E01E4A5A
:104AE000016891420DD100BF1949C96941F4802183
:104AF000174AD1611146C96901F48021009100BFB4
:104B000023E0164A016891420DD100BF1049C969DE
:104B100041F400210E4AD1611146C96901F4002116
:104B2000009100BF11E00E4A016891420DD100BF13
:104B30000749C96941F48011054AD1611146C96923
:104B400001F48011009100BF00BF08BD0038014092
:104B5000001002400044004000480040004C00406B
:104B60000050004010B5044694F8C900012808D14F
:104B700004F18400FDF7C2F818B19D2108A0FCF7EC
:104B8000AFFE94F8C800012808D104F14000FDF7F9
:104B9000B5F818B1A32102A0FCF7A2FE10BD0000D9
:104BA0002E2E5C4472697665725C5372635C64722B
:104BB000765F68616C5F756172742E63000000003F
:104BC00038B504462949206888420DD100BF2848DD
:104BD000406940F00100264948610846406900F0FC
:104BE0000100009000BF3FE02249206888420DD1BB
:104BF00000BF1F48406940F001001D494861084658
:104C0000406900F00100009000BF2DE01A492068C3
:104C100088420DD100BF1648406940F00100144998
:104C200048610846406900F00100009000BF1BE0A9
:104C30001249206888420DD100BF0D48406940F0FC
:104C400002000B4948610846406900F002000090EC
:104C500000BF09E00A492068884205D1F12109A076
:104C6000FCF73EFE00BFFEE738BD00000038014003
:104C7000001002400044004000480040004C00404A
:104C8000005000402E2E5C4472697665725C53724F
:104C9000635C6472765F68616C5F756172742E63C9
:104CA0000000000010B5044694F8C90001283AD16C
:104CB0003D49206888420AD194F8CB2094F8CA1064
:104CC0000F20FDF731FB0F20FDF71EFB2BE03749CE
:104CD000206888420AD194F8CB2094F8CA1010209A
:104CE000FDF722FB1020FDF70FFB1CE03049206888
:104CF00088420AD194F8CB2094F8CA100D20FDF711
:104D000013FB0D20FDF700FB0DE02A4920688842C7
:104D100009D194F8CB2094F8CA103A20FDF704FB8F
:104D20003A20FDF7F1FA94F8C80001283AD11E495B
:104D3000206888420AD194F8CD2094F8CC100E2037
:104D4000FDF7F2FA0E20FDF7DFFA2BE01749206895
:104D500088420AD194F8CD2094F8CC101120FDF7A8
:104D6000E3FA1120FDF7D0FA1CE0114920688842CF
:104D70000AD194F8CD2094F8CC100C20FDF7D4FA89
:104D80000C20FDF7C1FA0DE00A492068884209D1DC
:104D900094F8CD2094F8CC103B20FDF7C5FA3B20C9
:104DA000FDF7B2FA10BD0000003801400044004099
:104DB00000480040004C004038B5044600BF53484E
:104DC000806940F00100514988610846806900F01F
:104DD0000100009000BF00BF4D492068884228D1E3
:104DE0004FF48570005D40B900BF4A49486840F003
:104DF000E06020F00400486081E04FF48570005DC1
:104E0000032808D100BF4349486840F0E06040F003
:104E10000400486073E04FF48570005D012801D103
:104E200000BFFEE74FF48570005D022867D100BF28
:104E3000FEE739492068884228D14FF48570005D2B
:104E400040B900BF3349486840F0E06020F00800F6
:104E5000486054E04FF48570005D012801D100BF27
:104E6000FEE74FF48570005D022801D100BFFEE728
:104E70004FF48570005D032841D100BF2549486883
:104E800040F0E06040F00800486038E023492068C6
:104E9000884234D14FF48570005D48B900BF1D4988
:104EA000486820F0300040F0E06000BF486026E035
:104EB0004FF48570005D01280AD100BF154948688C
:104EC00020F0300040F0E06040F01000486016E054
:104ED0004FF48570005D022801D100BFFEE74FF45A
:104EE0008570005D03280AD100BF0A49486820F098
:104EF000300040F0E06040F03000486000BF022128
:104F000004F1F400FCF7A0FC38BD000000100240E2
:104F100000380140000001400044004000480040CB
:104F200010B504462549206888420AD194F8252105
:104F300094F824112520FDF7F7F92520FDF7E4F971
:104F40003AE01F49206888420AD194F8252194F854
:104F500024112620FDF7E8F92620FDF7D5F92BE0EE
:104F60001849206888420AD194F8252194F8241120
:104F70002720FDF7D9F92720FDF7C6F91CE01249D3
:104F8000206888420AD194F8252194F8241134200D
:104F9000FDF7CAF93420FDF7B7F90DE00B49206899
:104FA000884209D194F8252194F824113520FDF781
:104FB000BBF93520FDF7A8F910BD0000003801400D
:104FC0000044004000480040004C004000500040B9
:104FD00010B504462046FDF7EFFE18B18F2102A060
:104FE000FCF77EFC10BD00002E2E5C4472697665D5
:104FF000725C5372635C6472765F68616C5F75614A
:1050000072742E630000000000BF016809B9C44932
:10501000016000BF00BF416811B94FF416514160F3
:1050200000BF00BF416909B90C22426100BF00BF47
:10503000816809B90022826000BF00BFC16809B958
:105040000022C26000BF00BF016909B900220261ED
:1050500000BF00BF90F8241111B9012180F824117C
:1050600000BF00BF90F8251111B9032180F8251168
:1050700000BF90F8C81001295ED1A94A0168914289
:1050800002D1A849016415E0A74A0168914203D101
:10509000A4493C3101640DE0A44A0168914203D166
:1050A000A0492839016405E0A14A0168914201D173
:1050B000A049016400BF416C09B91022426400BFDD
:1050C00000BF816C09B90022826400BF00BFC16CBF
:1050D00009B98022C26400BF00BF016D09B9002276
:1050E000026500BF00BF416D09B90022426500BFE3
:1050F00000BF816D09B90022826500BF00BFC16D8C
:1051000009B90022C26500BF00BF90F8CC1011B9E8
:10511000012280F8CC2000BF00BF90F8CD1011B95B
:10512000012280F8CD2000BF00BFEA21095A11B941
:105130006422EA210A5200BF90F8C910012972D1F5
:10514000774A0168914204D1764A143284210A5088
:1051500019E0754A0168914204D1724A28328421CB
:105160000A5010E0714A0168914204D16D4A143A24
:1051700084210A5007E06E4A0168914203D16D4ACA
:10518000283A84210A5000BF8821095811B9002209
:1051900088210A5000BF00BF8C21095811B9002294
:1051A0008C210A5000BF00BF9021095811B98022FC
:1051B00090210A5000BF00BF9421095811B9002264
:1051C00094210A5000BF00BF9821095811B900224C
:1051D00098210A5000BF00BF9C21095811B9202214
:1051E0009C210A5000BF00BFA021095811B900221C
:1051F000A0210A5000BF00BF90F8CA1011B90122C7
:1052000080F8CA2000BF00BF90F8CB1011B901226E
:1052100080F8CB2000BF00BFDE21095A11B96422FB
:10522000DE210A5200BFD0F8F41021B14FF486718C
:10523000095801B170473A4A016891420FD14915A6
:10524000C0F8F4103C4A4FF482710A5012154FF422
:1052500086710A50384A4FF48E710A504EE0324A35
:10526000016891420FD10421C0F8F410324A4FF482
:1052700082710A5008224FF486710A502E4A4FF468
:105280008E710A503AE0294A016891420FD10915FE
:10529000C0F8F410294A4FF482710A50D2144FF426
:1052A00086710A50254A4FF48E710A5026E0204A32
:1052B000016891420FD10915C0F8F410204A4FF44B
:1052C00082710A50D2144FF486710A501C4A4FF46E
:1052D0008E710A5012E01B4A016891420ED1891466
:1052E000C0F8F410164A4FF482710A5004224FF4A9
:1052F00086710A50144A4FF48E710A500222F82126
:105300000A5000224FF488710A50FC210A500322EF
:10531000091D0A5000224FF485710A5400BF89E725
:105320000038014044000240004400400048004072
:10533000004C00405804024000080140000C0140AD
:10534000001001400050004000140140014632228C
:105350004A43092392FBF3F202F5FA7290B240F647
:10536000C412904200DD1046B0F5FA7F01DA4FF426
:10537000FA70704710B502F0B9FE04F061F802F05F
:10538000CFFE10BD10B5002100200022214B5B682C
:1053900003F00C0121B1042906D0082928D107E027
:1053A0001D4B1E4C236027E01B4B1C4C236023E04D
:1053B000184B5B6803F47010164B5B6803F4803283
:1053C000022303EB904022B9154B4343134C236057
:1053D0000DE0104B5B6803F4003323B1104B4343E3
:1053E0000E4C236003E00C4B43430C4C236003E062
:1053F000094B0A4C236000BF00BF064B5B68C3F338
:105400000313084CE15C054B1B68CB40034C236045
:1054100010BD00000010024000127A00BC0E0020F7
:1054200000093D00A19E0008704770477047704713
:10543000704770477047000010B50268204B9842D3
:105440000ED0204B98420BD0B0F1804F08D01E4BAD
:10545000984205D01D4B984202D01D4B984203D173
:1054600022F070024B681A43154B98420ED0154B30
:1054700098420BD0B0F1804F08D0134B984205D022
:10548000124B984202D0124B984203D122F4407240
:10549000CB681A4322F080034C6943EA040202609D
:1054A0008B68C3620B688362054B984202D0054B40
:1054B000984201D10B6903630123436110BD0000D1
:1054C000002C01400034014000040040000800406E
:1054D000000C004030B501F01F05012404FA05F36B
:1054E000046A9C430462046A01F01F0502FA05F590
:1054F0002C43046230BD000030B5056A25F001057B
:105500000562026A4368846924F0700424F003048D
:105510000D682C4322F002028D682A43104DA842E8
:1055200000D103E00F4DA84206D100BF22F00802CF
:10553000CD682A4322F00402094DA84202D0094D49
:10554000A84207D123F4807323F400734D692B43E1
:105550008D692B43436084614D684563026230BDB1
:10556000002C01400034014030B5056A25F01005DB
:105570000562026A4368846924F4E04424F44074B8
:105580000D6844EA052422F020028D6842EA0512E3
:10559000124DA84200D103E0114DA84207D100BF2F
:1055A00022F08002CD6842EA051222F040020B4D43
:1055B000A84202D00A4DA84209D123F4806323F403
:1055C00000634D6943EA85038D6943EA85034360BF
:1055D00084614D688563026230BD0000002C01408B
:1055E0000034014030B5056A25F480750562026A11
:1055F0004368C46924F0700424F003040D682C434C
:1056000022F400728D6842EA0522124DA84200D1B0
:1056100003E0114DA84207D100BF22F40062CD681B
:1056200042EA052222F480620A4DA84202D00A4DC5
:10563000A84209D123F4805323F400534D6943EA6F
:1056400005138D6943EA05134360C4614D68C56362
:10565000026230BD002C01400034014030B5056AC3
:1056600025F480550562036A4468C26922F4E04269
:1056700022F440720D6842EA052223F400538D683B
:1056800043EA0533084DA84202D0084DA84204D190
:1056900024F480444D6944EA85144460C2614D6835
:1056A0000564036230BD0000002C0140003401405D
:1056B0002DE9F04798B082464B220021F64802F0CF
:1056C000FDFE3022F5490CA8FAF709FE1822F3492D
:1056D000303106A8FAF703FE00200590F049086073
:1056E000ED483C30A0F10F01A0F11E02A0F12D0306
:1056F000CDE9002102901E3AEAA15046FAF71CFEBD
:10570000E7490860E4483C30A0F10F01A0F11E0217
:10571000A0F12D03CDE9002102901E3AE048016876
:10572000E4A001F02FFBDE48006810B918B0BDE816
:10573000F087E6A1D84803F063FB38BBD84800687F
:10574000032811DBD4490F310DF13F00FAF7EBFDCF
:105750000021D1481E3004F013FA14900021CE48E5
:105760002D3004F00DFA15901498FBF72BF9044630
:1057700022460B460DF13F01D5A001F003FB30227C
:105780000CA9D548006802F0B1FF78E2C248007861
:1057900040287DD1D1A1C04803F032FB10B90021CF
:1057A000159166E0CFA1BC4803F02AFB18B94FF071
:1057B0007E5115915DE0CDA1B74803F021FB18B9EA
:1057C0004FF08041159154E0CAA1B34803F018FB93
:1057D00010B9CA4915914CE0C9A1AF4803F010FBBC
:1057E00018B94FF08141159143E0C7A1AA4803F0D1
:1057F00007FB10B9C64915913BE0C6A1A64803F0C6
:10580000FFFA10B9C549159133E0C5A1A24803F0CC
:10581000F7FA10B9C44915912BE0C4A19E4803F0D2
:10582000EFFA48B94FF08241159100219A480F30A4
:1058300004F0A6F916901CE0BEA1974803F0E0FA28
:1058400040B9BE491591002193480F3004F098F9F2
:1058500016900EE0BAA1904803F0D2FA10B9BA49F6
:10586000159106E0B9A18C4803F0CAFA08B9B94904
:10587000159189490DF13F00FAF755FD1598FBF791
:10588000A1F8044622460B460DF13F0190A000E02E
:1058900008E001F077FA30220CA98F48006802F086
:1058A00025FFECE1ACA17C4803F0AAFA90B90021F5
:1058B00079480F3004F064F90A90002176481E30D0
:1058C00004F05EF90B90182206A9A448006802F0C3
:1058D000BBFFD4E1A2A1704803F092FA60B90021A5
:1058E0006D480F3004F04CF90590042205A99D483D
:1058F000006802F0FBFEC2E19BA1674803F080FA5A
:1059000020BB9BA164480F3003F07AFA58B90B22F0
:1059100099A10CA802F094FD30220CA96E480068F1
:1059200002F0E4FEABE197A15B480F3003F068FAA8
:105930000028B6D10D2295A106A802F081FD1822FB
:1059400006A98648006802F0D1FE98E193A152486A
:1059500003F056FA0028A4D191A14F480F3003F06C
:105960004FFA80BB00214C481E3004F009F9149016
:10597000002149482D3004F003F9159000214648D4
:105980003C3004F0FDF8169014A98848FBF7CCFED3
:1059900086498868FBF716F804460D46834948682F
:1059A000FBF710F806460F4680490868FBF70AF82F
:1059B000804642460B467EA0CDE90067CDE9024510
:1059C00001F0E0F95BE1FFE780A133480F3003F01D
:1059D00017FA70BB002130481E3004F0D1F8149043
:1059E00000212D482D3004F0CBF8159000212A48D5
:1059F0003C3004F0C5F8169014A97648FBF794FEE5
:105A000074498868FAF7DEFF80468946714948681C
:105A1000FAF7D8FF04460D466E490868FAF7D2FF38
:105A2000064632460B466CA08DE8300301F0AAF919
:105A300025E1FFE76EA118480F3003F0E1F948BBFC
:105A4000002115481E3004F09BF8149000211248E4
:105A50002D3004F095F8159000210F483C3004F0EB
:105A60008FF8169014A96648FBF75EFE64498868B3
:105A7000FAF7A8FF04460D4661494868FAF7A2FF05
:105A8000804689465E490868FAF79CFF064632461A
:105A90000B46B7E0BEE00000CC0E0020289D0008B9
:105AA000380D0020257320257320257320257320B1
:105AB000257300002564202C25732C25732C257359
:105AC0002C25732C25730D0A0000000040000000F7
:105AD00025732025660D0A003C000020404D5255DC
